:100000000C948F000C94B0000C94B0000C94B000D1
:100010000C94B0000C94FC000C94B0000C94B00054
:100020000C94B0000C94B0000C94B0000C94B00090
:100030000C94B0000C94B0000C94B0000C94B00080
:100040000C94B0000C94B0000C94B0000C94B00070
:100050000C94B0000C94B0000C94B0000C94B00060
:100060000C94B0000C94B0000C94B0000C94B00050
:100070000C94B0000C94B0000C94B0000C94B00040
:100080000C94B0000C94B0000C94B0000C94B00030
:100090000C94B0000C94B0000C94B0000C94B00020
:1000A0000C94B0000C94B0000C94B0000C94B00010
:1000B0000C94B0000C94B0000C94B0000C94B00000
:1000C0000C94B0000C94B0000C94B0000C94B000F0
:1000D0000C94B0000C94B0000C94B0000C94B000E0
:1000E0000C94B00068017201C001CA01D801E2019C
:1000F000EC01F60100020C9468010C9481020C944E
:10010000C0010C94EC010C94D8010C94F6010C94F1
:10011000CA010C9400020C94E2010C9472011124A7
:100120001FBECFEFD1E2DEBFCDBF00E00CBF12E0BB
:10013000A0E0B2E0EAEDFEE000E00BBF02C00790F5
:100140000D92AA3CB107D9F722E0AAECB2E001C0B7
:100150001D92AD3EB207E1F70E948A020C946B0734
:100160000C940000CF93DF938FB78F778FBFA0E9F8
:10017000B0E08C9180688C938C918F7B8C93E0EABB
:10018000F0E080818860808380818B7F808381E93B
:1001900090E0EC0128812B7F28832881226028832E
:1001A000C1EAD0E028812B7F288328812260288320
:1001B0002C9122602C932C912E7F2C93DC012C917E
:1001C00020682C932FE33CE930939700209396000E
:1001D00080818260808380818E7F80838881806837
:1001E00088833093A7002093A6006B9A8FB780680E
:1001F0008FBFDF91CF9108951F920F920FB60F928C
:1002000011240BB60F922F933F934F935F938F93CD
:100210009F93AF93BF93EF93FF938091CA02811195
:100220000CC080918400909185009093D0028093BF
:10023000CF0281E08093CA0217C080918400909120
:1002400085009093CC028093CB022091CF02309115
:10025000D0028217930710F4815C9346821B930BA4
:100260009093CE028093CD028091CD029091CE02E8
:10027000813127E2920720F089E08093CA0204C00E
:10028000813A2FE0920718F080EA9FE005C0803D98
:10029000974030F480ED97E09093CE028093CD02AA
:1002A000E091CA028E2F90E0FC013197E930F10510
:1002B00008F0B1C02091CD023091CE024091CB0226
:1002C0005091CC028827EE58FF4F8F4F0C940603B5
:1002D0003093D2022093D1025093D0024093CF02A8
:1002E00082E097C03093D4022093D3025093D0027F
:1002F0004093CF022D318CE03807B8F08091020195
:10030000886080930201809102018F7E80930201B8
:100310002091CD023091CE0248E2429FC001439F1E
:10032000900D1124805C944D19C080910201877F4B
:100330008093020124353B40B0F48091020180613A
:10034000809302012091CD023091CE0248ED42030C
:10035000C001439F900D112480549B4290939900BB
:100360008093980009C0809102018F7E80930201E2
:1003700010929900109298008091CA028F5F49C034
:100380003093D6022093D5025093D0024093CF02EF
:1003900084E03FC03093D8022093D7025093D0021C
:1003A0004093CF023093AD002093AC0085E031C084
:1003B0003093DA022093D9025093D0024093CF02B7
:1003C00086E027C03093DC022093DB025093D002FA
:1003D0004093CF0287E01DC03093DE022093DD0200
:1003E0005093D0024093CF0288E013C03093E002D4
:1003F0002093DF025093D0024093CF0289E009C0DE
:100400003093E2022093E1025093D0024093CF0256
:1004100081E08093CA02FF91EF91BF91AF919F91CC
:100420008F915F914F913F912F910F900BBE0F9045
:100430000FBE0F901F9018958FB78F778FBF24989E
:100440002C98EAE6F0E080818260808380818E7F54
:100450008083EC9AE49A8FB780688FBF08958FB736
:100460008F778FBFE0E8F0E080818E7F808380818E
:100470008D7F8083E1E8F0E08081886080838081E7
:100480008F7E80838081826080838FE39CE990935C
:100490008900809388008FB780688FBF0895E0EC53
:1004A000F0E08081826080831092C5008FEC8093A1
:1004B000C400E2ECF0E0808186608083E1ECF0E053
:1004C00080818061808380818860808308958091AD
:1004D000C00087FFFCCF8091C60008959091C000B6
:1004E00095FFFCCF8093C6000895CF93DF93EC0176
:1004F0008991882319F00E946E02FACFDF91CF9183
:1005000008959091C00095FFFCCF8093C60080E0D5
:1005100090E0089560E070E081E892E00E940E03B0
:100520000E944F0286E092E09F938F930E945903AE
:100530000E942F028CE192E09F938F930E945903B7
:100540000E941C0289E392E09F938F930E945903BB
:100550000E94B20086E592E09F938F930E94590318
:100560008DB79EB708960FB6F8949EBF0FBE8DBF8D
:10057000C0E7D2E08091E2028F938091E1028F93F5
:100580008091E0028F938091DF028F938091DE0251
:100590008F938091DD028F938091DC028F93809105
:1005A000DB028F938091DA028F938091D9028F932F
:1005B0008091D8028F938091D7028F938091D60239
:1005C0008F938091D5028F938091D4028F938091E5
:1005D000D3028F938091D2028F938091D1028F9317
:1005E000DF93CF930E9459038FEF99E628E1815062
:1005F00090402040E1F700C000008DB79EB74496C0
:100600000FB6F8949EBF0FBE8DBFB4CFEE0FFF1F85
:10061000881F8BBF0790F691E02D19940F931F93BD
:10062000CF93DF93009731F46115710519F480E0E1
:1006300090E03AC08B01EC016EE070E081E090E068
:100640000E947705FC01892B91F380E883830115D3
:10065000110571F01387028781E883838091E3029B
:100660009091E402892B21F4F093E402E093E302F9
:100670002097C9F0D187C08783818260838380916E
:10068000E5029091E602892B71F4F093E602E09383
:10069000E5028091E7029091E802892B21F4F09322
:1006A000E802E093E702CF01DF91CF911F910F9114
:1006B0000895CF93DF93CDB7DEB7AE014A5F5F4FAA
:1006C000FA0161917191AF018091E5029091E6028A
:1006D0000E946D03DF91CF9108952F923F924F9228
:1006E0005F926F927F928F929F92AF92BF92CF92C2
:1006F000DF92EF92FF920F931F93CF93DF93CDB7CB
:10070000DEB72B970FB6F894DEBF0FBECDBF6C01DE
:100710007B018A01FC0117821682838181FFCCC193
:10072000CE0101963C01F6019381F70193FD85917D
:1007300093FF81917F01882309F4BAC1853239F48E
:1007400093FD859193FF81917F01853229F4B60154
:1007500090E00E94D106E7CF912C212C312CFFE1B3
:10076000F315D8F08B3279F038F4803279F0833297
:10077000A1F4232D20611DC08D3261F0803369F416
:10078000232D216016C0832D8260382EE32DE46076
:100790003E2E2AC0F32DF8601DC037FC2DC020ED81
:1007A000280F2A3040F08E32B9F436FC81C1232D57
:1007B0002064322E19C036FE06C08AE0989E200DB5
:1007C0001124922E11C0EAE02E9E200D1124222E1B
:1007D000F32DF0623F2E08C08C3621F4832D806803
:1007E000382E02C0883641F4F70193FD859193FFBE
:1007F00081917F018111B3CF982F9F7D95549330C4
:1008000028F40C5F1F4F9FE399830DC0833631F0AE
:10081000833771F0833509F059C021C0F801808118
:1008200089830E5F1F4F88248394912C530113C03A
:100830002801F2E04F0E511CF801A080B18036FE75
:1008400003C0692D70E002C06FEF7FEFC5010E9409
:10085000C6064C018201F32DFF773F2E16C02801FA
:1008600022E0420E511CF801A080B18036FE03C088
:10087000692D70E002C06FEF7FEFC5010E94B406E2
:100880004C01F32DF0683F2E820133FC1BC0822DFA
:1008900090E088169906B0F4B60180E290E00E94DC
:1008A000D1062A94F4CFF50137FC859137FE81916A
:1008B0005F01B60190E00E94D10621102A9421E048
:1008C000821A91088114910471F7E8C0843611F0FE
:1008D000893641F5F80137FE07C060817181828158
:1008E00093810C5F1F4F08C060817181072E000C3F
:1008F000880B990B0E5F1F4FF32DFF763F2E97FF4E
:1009000009C090958095709561957F4F8F4F9F4F4F
:10091000F0683F2E2AE030E0A3010E940D07882EE8
:10092000861845C0853731F4232D2F7EB22E2AE05C
:1009300030E025C0932D997FB92E8F36C1F018F481
:10094000883579F0B5C0803719F0883721F0B0C00C
:10095000E92FE061BE2EB4FE0DC0FB2DF460BF2E6A
:1009600009C034FE0AC0292F2660B22E06C028E036
:1009700030E005C020E130E002C020E132E0F801C3
:10098000B7FE07C060817181828193810C5F1F4F28
:1009900006C06081718180E090E00E5F1F4FA3016F
:1009A0000E940D07882E8618FB2DFF773F2E36FEFE
:1009B0000DC0232D2E7FA22E891458F434FE0BC0B7
:1009C00032FC09C0832D8E7EA82E05C0B82CA32C26
:1009D00003C0B82C01C0B92CA4FE0FC0FE01E80D65
:1009E000F11D8081803321F49A2D997EA92E09C0B2
:1009F000A2FE06C0B394B39404C08A2D867809F091
:100A0000B394A3FC11C0A0FE06C0B21488F4280C55
:100A1000922C9B180EC0B21460F4B60180E290E0F4
:100A20000E94D106B394F7CFB21418F42B1802C069
:100A3000982C212CA4FE10C0B60180E390E00E9407
:100A4000D106A2FE17C0A1FC03C088E790E002C057
:100A500088E590E0B6010CC08A2D867859F0A1FE99
:100A600002C08BE201C080E2A7FC8DE2B60190E0FB
:100A70000E94D106891438F4B60180E390E00E9408
:100A8000D1069A94F7CF8A94F301E80DF11D808185
:100A9000B60190E00E94D1068110F5CF222009F422
:100AA00042CEB60180E290E00E94D1062A94F6CFB1
:100AB000F6018681978102C08FEF9FEF2B960FB6CC
:100AC000F894DEBF0FBECDBFDF91CF911F910F9184
:100AD000FF90EF90DF90CF90BF90AF909F908F905E
:100AE0007F906F905F904F903F902F9008950F935D
:100AF0001F93CF93DF93869F8001879F100D969F52
:100B0000100D1124C8010E949305EC01009729F0F3
:100B1000A80160E070E00E94BF06CE01DF91CF9196
:100B20001F910F9108950F931F93CF93DF938230FE
:100B3000910510F482E090E0E091EB02F091EC027C
:100B400020E030E0A0E0B0E0309719F14081518121
:100B50000281138148175907C8F08417950769F473
:100B6000109731F012960C93129713961C9327C08E
:100B70000093EB021093EC0222C02115310519F00D
:100B80004217530718F49A01BD01EF01DF01F80184
:100B9000DBCF21153105F9F0281B390B2430310545
:100BA00080F48A819B816115710521F0FB0193839B
:100BB000828304C09093EC028093EB02FE01329694
:100BC00044C0FE01E20FF31F81939193225031093B
:100BD000398328833AC02091E9023091EA02232B1D
:100BE00041F420910202309103023093EA022093F3
:100BF000E90220910002309101022115310541F4F2
:100C00002DB73EB74091040250910502241B350BCD
:100C1000E091E902F091EA02E217F307A0F42E1B3B
:100C20003F0B2817390778F0AC014E5F5F4F241750
:100C3000350748F04E0F5F1F5093EA024093E902D8
:100C40008193919302C0E0E0F0E0CF01DF91CF917A
:100C50001F910F910895CF93DF93009709F481C0FE
:100C6000FC01329713821282A091EB02B091EC0248
:100C7000109781F420813181820F931F2091E90226
:100C80003091EA022817390751F5F093EA02E09310
:100C9000E90267C0ED0120E030E0CE17DF0740F445
:100CA0004A815B819E0141155105F1F0EA01F5CFC2
:100CB000D383C28340815181840F951FC817D90700
:100CC00059F488819981840F951F029691838083BE
:100CD0008A819B81938382832115310529F4F093C6
:100CE000EC02E093EB023DC0E901FB83EA8349910A
:100CF0005991C40FD51FEC17FD0761F480819181D4
:100D0000840F951F0296E9019983888382819381DC
:100D10009B838A83E0E0F0E012968D919C9113977B
:100D2000009719F0FD01DC01F7CF8D919C9111978F
:100D30009D012E5F3F4F820F931F2091E90230915A
:100D4000EA022817390769F4309729F41092EC0267
:100D50001092EB0202C013821282B093EA02A093B7
:100D6000E902DF91CF910895FC0105906150704038
:100D70000110D8F7809590958E0F9F1F0895DC0184
:100D800001C06D9341505040E0F70895FC0161505F
:100D9000704001900110D8F7809590958E0F9F1F9D
:100DA00008950F931F93CF93DF93FB01238121FDC0
:100DB00003C08FEF9FEF2CC022FF16C046815781E2
:100DC000248135814217530744F4A081B1819D01EC
:100DD0002F5F3F4F318320838C93268137812F5F94
:100DE0003F4F3783268314C08B01EC01FB01008445
:100DF000F185E02D1995892BE1F6D80116968D9194
:100E00009C911797019617969C938E931697CE01F7
:100E1000DF91CF911F910F910895FA01AA272830F1
:100E200051F1203181F1E8946F936E7F6E5F7F4FB7
:100E30008F4F9F4FAF4FB1E03ED0B4E03CD0670F33
:100E4000781F891F9A1FA11D680F791F8A1F911D86
:100E5000A11D6A0F711D811D911DA11D20D009F4D6
:100E600068943F912AE0269F11243019305D319318
:100E7000DEF6CF010895462F4770405D4193B3E001
:100E80000FD0C9F7F6CF462F4F70405D4A3318F0A8
:100E9000495D31FD4052419302D0A9F7EACFB4E059
:100EA000A6959795879577956795BA95C9F7009711
:100EB0006105710508959B01AC010A2E06945795B2
:100EC000479537952795BA95C9F7620F731F841F09
:0A0ED000951FA01D0895F894FFCFB0
:100EDA000000ED0220005541525420496E697420E9
:100EEA0053756363657373210A0D000052462050DF
:100EFA00504D2054696D6572205365742053756393
:100F0A0063657373210A0D000052462052656365BA
:100F1A006976657220496E697420537563636573D7
:100F2A0073210A0D0000466173742050574D204901
:100F3A006E69742053756363657373210A0D00002B
:100F4A006368313A2025642C206368323A2025648C
:100F5A002C206368333A2025642C206368343A20B5
:100F6A0025642C206368353A2025642C2063683672
:100F7A003A2025642C206368373A2025642C2063A4
:100F8A0068383A2025642C2072656D61696E646543
:0A0F9A00723A2025640A0D000000E1
:00000001FF
