:100000000C9472000C947E000C947E000C947E0084
:100010000C947E000C947E000C947E000C947E0068
:100020000C947E000C947E000C947E000C947E0058
:100030000C947E000C947E000C947E000C947E0048
:100040000C947E000C947E000C947E000C947E0038
:100050000C947E000C947E000C947E000C947E0028
:100060000C947E000C947E000C947E000C947E0018
:100070000C947E000C947E000C947E000C947E0008
:100080000C947E000C947E000C947E000C947E00F8
:100090000C947E000C947E000C947E000C947E00E8
:1000A0000C947E000C947E000C947E000C947E00D8
:1000B0000C947E000C947E000C947E000C947E00C8
:1000C0000C947E000C947E000C947E000C947E00B8
:1000D0000C947E000C947E000C947E000C947E00A8
:1000E0000C947E0011241FBECFEFD1E2DEBFCDBF46
:1000F00000E00CBF0E94EE000C94EF000C94000096
:100100008FB78F778FBF24982C98EAE6F0E0808134
:100110008260808380818E7F8083EC9AE49A8FB79F
:1001200080688FBF08958FB78F778FBFE0E8F0E0CA
:1001300080818E7F808380818D7F8083E1E8F0E005
:1001400080818860808380818F7E808380818260CF
:1001500080838FE39CE990938900809388008FB718
:1001600080688FBF0895E0ECF0E08081826080833A
:100170001092C5008FEC8093C400E2ECF0E0808127
:1001800086608083E1ECF0E0808180618083808103
:100190008860808308958091C00087FFFCCF8091A4
:1001A000C60008959091C00095FFFCCF8093C600D3
:1001B0000895CF93DF93EC018991882319F00E9471
:1001C000D200FACFDF91CF9108959091C00095FFB2
:1001D000FCCF8093C60080E090E00895FFCFF894B4
:0201E000FFCF4F
:00000001FF
