:100000000C948F000C94B0000C94B0000C94B000D1
:100010000C94B0000C94B2000C94B0000C94B0009E
:100020000C94B0000C94B0000C94B0000C94B00090
:100030000C94B0000C94B0000C94B0000C94B00080
:100040000C94B0000C94B0000C94B0000C94B00070
:100050000C94B0000C94B0000C94B0000C94B00060
:100060000C94B0000C94B0000C94B0000C94B00050
:100070000C94B0000C94B0000C94B0000C94B00040
:100080000C94B0000C94B0000C94B0000C94B00030
:100090000C94B0000C94B0000C94B0000C94B00020
:1000A0000C94B0000C94B0000C94B0000C94B00010
:1000B0000C94B0000C94B0000C94B0000C94B00000
:1000C0000C94B0000C94B0000C94B0000C94B000F0
:1000D0000C94B0000C94B0000C94B0000C94B000E0
:1000E0000C94B0001E012801760180018E01980158
:1000F000A201AC01B6010C941E010C9476010C9483
:1001000080010C948E010C9437020C9498010C948D
:1001100028010C94B6010C94AC010C94A20111249A
:100120001FBECFEFD1E2DEBFCDBF00E00CBF12E0BB
:10013000A0E0B2E0EAE4FEE000E00BBF02C00790FE
:100140000D92AE3BB107D9F722E0AEEBB2E001C0B1
:100150001D92A13EB207E1F70E9440020C942307D2
:100160000C9400001F920F920FB60F9211240BB641
:100170000F922F933F934F935F938F939F93AF93E0
:10018000BF93EF93FF938091BE0281110CC08091C9
:100190008400909185009093C4028093C30281E013
:1001A0008093BE0217C08091840090918500909347
:1001B000C0028093BF022091C3023091C402821713
:1001C000930710F4815C9346821B930B9093C202B9
:1001D0008093C1028091C1029091C202813127E2D5
:1001E000920720F089E08093BE0204C0813A2FE09C
:1001F000920718F080EA9FE005C0803D974030F4F8
:1002000080ED97E09093C2028093C102E091BE021C
:100210008E2F90E0FC013197E930F10508F0B1C074
:100220002091C1023091C2024091BF025091C002A0
:100230008827EE58FF4F8F4F0C94BE023093C602B2
:100240002093C5025093C4024093C30282E097C03A
:100250003093C8022093C7025093C4024093C30254
:100260002D318CE03807B8F08091020188608093CE
:100270000201809102018F7E809302012091C102D0
:100280003091C20248E2429FC001439F900D112469
:10029000805C944D19C080910201877F8093020198
:1002A00024353B40B0F480910201806180930201CB
:1002B0002091C1023091C20248ED4203C001439F28
:1002C000900D112480549B42909399008093980044
:1002D00009C0809102018F7E8093020110929900E3
:1002E000109298008091BE028F5F49C03093CA027D
:1002F0002093C9025093C4024093C30284E03FC0DC
:100300003093CC022093CB025093C4024093C3029B
:100310003093AD002093AC0085E031C03093CE0225
:100320002093CD025093C4024093C30286E027C0BD
:100330003093D0022093CF025093C4024093C30263
:1003400087E01DC03093D2022093D1025093C402A3
:100350004093C30288E013C03093D4022093D302A9
:100360005093C4024093C30289E009C03093D6027F
:100370002093D5025093C4024093C30281E080933E
:10038000BE02FF91EF91BF91AF919F918F915F91CD
:100390004F913F912F910F900BBE0F900FBE0F907A
:1003A0001F9018958FB78F778FBF24982C98EAE607
:1003B000F0E080818260808380818E7F8083EC9AF0
:1003C000E49A8FB780688FBF08958FB78F778FBFFC
:1003D000E0E8F0E080818E7F808380818D7F808364
:1003E000E1E8F0E080818860808380818F7E808377
:1003F0008081826080838FE39CE990938900809361
:1004000088008FB780688FBF0895E0ECF0E08081AE
:10041000826080831092C5008FEC8093C400E2EC70
:10042000F0E0808186608083E1ECF0E08081806193
:10043000808380818860808308958091C00087FFD9
:10044000FCCF8091C60008959091C00095FFFCCF2D
:100450008093C6000895CF93DF93EC0189918823A0
:1004600019F00E942402FACFDF91CF910895909164
:10047000C00095FFFCCF8093C60080E090E0089517
:1004800060E070E087E392E00E94C6020E940502ED
:1004900086E092E09F938F930E9411030E94E501F2
:1004A0008CE192E09F938F930E9411030E94D201EE
:1004B00089E392E09F938F930E9411030F900F9016
:1004C0000F900F900F900F9006E512E0CFEAD2E068
:1004D0008091D6028F938091D5028F938091D40220
:1004E0008F938091D3028F938091D2028F938091CA
:1004F000D1028F938091D0028F938091CF028F93FE
:100500008091CE028F938091CD028F938091CC0207
:100510008F938091CB028F938091CA028F938091A9
:10052000C9028F938091C8028F938091C7028F93E5
:100530008091C6028F938091C5028F931F930F9372
:100540000E94110380919800909199009F938F933E
:10055000DF93CF930E9411039FEF29E688E191502A
:1005600020408040E1F700C000008DB79EB748965C
:100570000FB6F8949EBF0FBE8DBFAACFEE0FFF1F20
:10058000881F8BBF0790F691E02D19940F931F934E
:10059000CF93DF93009731F46115710519F480E072
:1005A00090E03AC08B01EC016EE070E081E090E0F9
:1005B0000E942F05FC01892B91F380E883830115AC
:1005C000110571F01387028781E883838091D70238
:1005D0009091D802892B21F4F093D802E093D702AE
:1005E0002097C9F0D187C0878381826083838091FF
:1005F000D9029091DA02892B71F4F093DA02E09338
:10060000D9028091DB029091DC02892B21F4F093D6
:10061000DC02E093DB02CF01DF91CF911F910F91BC
:100620000895CF93DF93CDB7DEB7AE014A5F5F4F3A
:10063000FA0161917191AF018091D9029091DA0232
:100640000E942503DF91CF9108952F923F924F9200
:100650005F926F927F928F929F92AF92BF92CF9252
:10066000DF92EF92FF920F931F93CF93DF93CDB75B
:10067000DEB72B970FB6F894DEBF0FBECDBF6C016F
:100680007B018A01FC0117821682838181FFCCC124
:10069000CE0101963C01F6019381F70193FD85910E
:1006A00093FF81917F01882309F4BAC1853239F41F
:1006B00093FD859193FF81917F01853229F4B601E5
:1006C00090E00E948906E7CF912C212C312CFFE18C
:1006D000F315D8F08B3279F038F4803279F0833228
:1006E000A1F4232D20611DC08D3261F0803369F4A7
:1006F000232D216016C0832D8260382EE32DE46007
:100700003E2E2AC0F32DF8601DC037FC2DC020ED11
:10071000280F2A3040F08E32B9F436FC81C1232DE7
:100720002064322E19C036FE06C08AE0989E200D45
:100730001124922E11C0EAE02E9E200D1124222EAB
:10074000F32DF0623F2E08C08C3621F4832D806893
:10075000382E02C0883641F4F70193FD859193FF4E
:1007600081917F018111B3CF982F9F7D9554933054
:1007700028F40C5F1F4F9FE399830DC0833631F03F
:10078000833771F0833509F059C021C0F8018081A9
:1007900089830E5F1F4F88248394912C530113C0CB
:1007A0002801F2E04F0E511CF801A080B18036FE06
:1007B00003C0692D70E002C06FEF7FEFC5010E949A
:1007C0007E064C018201F32DFF773F2E16C02801D3
:1007D00022E0420E511CF801A080B18036FE03C019
:1007E000692D70E002C06FEF7FEFC5010E946C06BB
:1007F0004C01F32DF0683F2E820133FC1BC0822D8B
:1008000090E088169906B0F4B60180E290E00E946C
:1008100089062A94F4CFF50137FC859137FE819142
:100820005F01B60190E00E94890621102A9421E020
:10083000821A91088114910471F7E8C0843611F08E
:10084000893641F5F80137FE07C0608171818281E8
:1008500093810C5F1F4F08C060817181072E000CCF
:10086000880B990B0E5F1F4FF32DFF763F2E97FFDE
:1008700009C090958095709561957F4F8F4F9F4FE0
:10088000F0683F2E2AE030E0A3010E94C506882EC2
:10089000861845C0853731F4232D2F7EB22E2AE0ED
:1008A00030E025C0932D997FB92E8F36C1F018F412
:1008B000883579F0B5C0803719F0883721F0B0C09D
:1008C000E92FE061BE2EB4FE0DC0FB2DF460BF2EFB
:1008D00009C034FE0AC0292F2660B22E06C028E0C7
:1008E00030E005C020E130E002C020E132E0F80154
:1008F000B7FE07C060817181828193810C5F1F4FB9
:1009000006C06081718180E090E00E5F1F4FA301FF
:100910000E94C506882E8618FB2DFF773F2E36FED7
:100920000DC0232D2E7FA22E891458F434FE0BC047
:1009300032FC09C0832D8E7EA82E05C0B82CA32CB6
:1009400003C0B82C01C0B92CA4FE0FC0FE01E80DF5
:10095000F11D8081803321F49A2D997EA92E09C042
:10096000A2FE06C0B394B39404C08A2D867809F021
:10097000B394A3FC11C0A0FE06C0B21488F4280CE6
:10098000922C9B180EC0B21460F4B60180E290E085
:100990000E948906B394F7CFB21418F42B1802C042
:1009A000982C212CA4FE10C0B60180E390E00E9498
:1009B0008906A2FE17C0A1FC03C088E790E002C030
:1009C00088E590E0B6010CC08A2D867859F0A1FE2A
:1009D00002C08BE201C080E2A7FC8DE2B60190E08C
:1009E0000E948906891438F4B60180E390E00E94E1
:1009F00089069A94F7CF8A94F301E80DF11D80815E
:100A0000B60190E00E9489068110F5CF222009F4FA
:100A100042CEB60180E290E00E9489062A94F6CF89
:100A2000F6018681978102C08FEF9FEF2B960FB65C
:100A3000F894DEBF0FBECDBFDF91CF911F910F9114
:100A4000FF90EF90DF90CF90BF90AF909F908F90EE
:100A50007F906F905F904F903F902F9008950F93ED
:100A60001F93CF93DF93869F8001879F100D969FE2
:100A7000100D1124C8010E944B05EC01009729F0CC
:100A8000A80160E070E00E947706CE01DF91CF916F
:100A90001F910F9108950F931F93CF93DF9382308F
:100AA000910510F482E090E0E091DF02F091E00225
:100AB00020E030E0A0E0B0E0309719F140815181B2
:100AC0000281138148175907C8F08417950769F404
:100AD000109731F012960C93129713961C9327C01F
:100AE0000093DF021093E00222C02115310519F0B6
:100AF0004217530718F49A01BD01EF01DF01F80115
:100B0000DBCF21153105F9F0281B390B24303105D5
:100B100080F48A819B816115710521F0FB0193832B
:100B2000828304C09093E0028093DF02FE0132963C
:100B300044C0FE01E20FF31F8193919322503109CB
:100B4000398328833AC02091DD023091DE02232BC5
:100B500041F420910202309103023093DE0220938F
:100B6000DD0220910002309101022115310541F48E
:100B70002DB73EB74091040250910502241B350B5E
:100B8000E091DD02F091DE02E217F307A0F42E1BE4
:100B90003F0B2817390778F0AC014E5F5F4F2417E1
:100BA000350748F04E0F5F1F5093DE024093DD0281
:100BB0008193919302C0E0E0F0E0CF01DF91CF910B
:100BC0001F910F910895CF93DF93009709F481C08F
:100BD000FC01329713821282A091DF02B091E002F1
:100BE000109781F420813181820F931F2091DD02C3
:100BF0003091DE022817390751F5F093DE02E093B9
:100C0000DD0267C0ED0120E030E0CE17DF0740F4E1
:100C10004A815B819E0141155105F1F0EA01F5CF52
:100C2000D383C28340815181840F951FC817D90790
:100C300059F488819981840F951F0296918380834E
:100C40008A819B81938382832115310529F4F09356
:100C5000E002E093DF023DC0E901FB83EA834991B2
:100C60005991C40FD51FEC17FD0761F48081918164
:100C7000840F951F0296E90199838883828193816D
:100C80009B838A83E0E0F0E012968D919C9113970C
:100C9000009719F0FD01DC01F7CF8D919C91119720
:100CA0009D012E5F3F4F820F931F2091DD023091F7
:100CB000DE022817390769F4309729F41092E00210
:100CC0001092DF0202C013821282B093DE02A09360
:100CD000DD02DF91CF910895FC01059061507040D5
:100CE0000110D8F7809590958E0F9F1F0895DC0115
:100CF00001C06D9341505040E0F70895FC016150F0
:100D0000704001900110D8F7809590958E0F9F1F2D
:100D100008950F931F93CF93DF93FB01238121FD50
:100D200003C08FEF9FEF2CC022FF16C04681578172
:100D3000248135814217530744F4A081B1819D017C
:100D40002F5F3F4F318320838C93268137812F5F24
:100D50003F4F3783268314C08B01EC01FB010084D5
:100D6000F185E02D1995892BE1F6D80116968D9124
:100D70009C911797019617969C938E931697CE0188
:100D8000DF91CF911F910F910895FA01AA27283082
:100D900051F1203181F1E8946F936E7F6E5F7F4F48
:100DA0008F4F9F4FAF4FB1E03ED0B4E03CD0670FC4
:100DB000781F891F9A1FA11D680F791F8A1F911D17
:100DC000A11D6A0F711D811D911DA11D20D009F467
:100DD00068943F912AE0269F11243019305D3193A9
:100DE000DEF6CF010895462F4770405D4193B3E092
:100DF0000FD0C9F7F6CF462F4F70405D4A3318F039
:100E0000495D31FD4052419302D0A9F7EACFB4E0E9
:100E1000A6959795879577956795BA95C9F70097A1
:100E20006105710508959B01AC010A2E0694579542
:100E3000479537952795BA95C9F7620F731F841F99
:0A0E4000951FA01D0895F894FFCF40
:100E4A000000E10220005541525420496E69742085
:100E5A0053756363657373210A0D0000524620506F
:100E6A00504D2054696D6572205365742053756323
:100E7A0063657373210A0D0000524620526563654B
:100E8A006976657220496E69742053756363657368
:100E9A0073210A0D00006368313A2025642C20630F
:100EAA0068323A2025642C206368333A2025642C62
:100EBA00206368343A2025642C206368353A20255B
:100ECA00642C206368363A2025642C206368373AFC
:100EDA002025642C206368383A2025642C2072650A
:100EEA006D61696E6465723A2025640A0D000073AB
:0E0EFA006572766F203A2025640D0A00000014
:00000001FF
